:020000040800F2
:100000000000032075EC0108D95D0108DB5D0108E3
:10001000DD5D0108DF5D0108E15D01080000000011
:10002000000000000000000000000000C1630008A4
:10003000E35D01080000000061640008E55D01085F
:10004000C5EC0108C5EC0108C5EC0108C5EC0108C8
:10005000C5EC0108C5EC0108C5EC0108C5EC0108B8
:10006000C5EC0108C5EC0108C5EC0108C5EC0108A8
:10007000C5EC0108C5EC0108C5EC0108C5EC010898
:10008000C5EC0108C5EC0108C5EC0108C5EC010888
:10009000C5EC0108C5EC0108C5EC0108C5EC010878
:1000A000C5EC0108C5EC0108C5EC0108C5EC010868
:1000B000C5EC0108C5EC0108C5EC0108C5EC010858
:1000C000C5EC0108C5EC0108C5EC0108C5EC010848
:1000D000C5EC0108C5EC0108C5EC0108C5EC010838
:1000E000C5EC0108C5EC0108C5EC0108C5EC010828
:1000F000C5EC0108C5EC0108C5EC0108C5EC010818
:10010000C5EC0108C5EC0108C5EC0108C5EC010807
:10011000C5EC0108C5EC0108ED5D0108C5EC01085E
:10012000C5EC0108C5EC0108C5EC0108C5EC0108E7
:10013000C5EC0108FD5D0108C5EC0108C5EC01082E
:10014000C5EC0108C5EC0108C5EC01080D5E01080D
:10015000C5EC0108C5EC0108C5EC0108C5EC0108B7
:10016000C5EC0108C5EC0108C5EC0108C5EC0108A7
:10017000C5EC0108C5EC0108C5EC01080000000051
:10018000C5EC0108C5EC0108C5EC0108C5EC010887
:10019000C5EC0108C5EC0108C5EC0108C5EC010877
:0C01A000C5EC0108C5EC0108C5EC010825
:1001B00010B5054C237833B9044B13B10448AFF3A1
:1001C00000800123237010BD2403002000000000E4
:1001D0003009020808B5034B1BB103490348AFF3CC
:1001E000008008BD0000000028030020300902083C
:1001F00001F0FF01102A2BDB10F0070F08D010F8D8
:10020000013B013A8B422DD010F0070F42B3F6D1DB
:10021000F0B441EA012141EA014122F007047FF0F4
:1002200000070023F0E80256083C85EA010586EA4B
:10023000010685FA47F5A3FA87F586FA47F6A5FA87
:1002400087F68EB9EED1F0BC01F0FF0102F0070293
:1002500032B110F8013B013A83EA010313B1F8D13E
:100260000020704701387047002D06BF354603381F
:10027000073815F0010F07D1013015F4807F02BF58
:10028000013015F4C03F0130F0BC0138704700BFA9
:10029000034613F8012B002AFBD1181A01387047C6
:1002A00081F0004102E000BF83F0004330B54FEA27
:1002B00041044FEA430594EA050F08BF90EA020F94
:1002C0001FBF54EA000C55EA020C7FEA645C7FEA27
:1002D000655C00F0E2804FEA5454D4EB5555B8BF4A
:1002E0006D420CDD2C4480EA020281EA030382EABB
:1002F000000083EA010180EA020281EA0303362D4D
:1003000088BF30BD11F0004F4FEA01314FF4801C1F
:100310004CEA113102D0404261EB410113F0004F31
:100320004FEA03334CEA133302D0524263EB4303E8
:1003300094EA050F00F0A780A4F10104D5F1200E86
:100340000DDB02FA0EFC22FA05F2801841F10001E1
:1003500003FA0EF2801843FA05F359410EE0A5F1B5
:1003600020050EF1200E012A03FA0EFC28BF4CF0E6
:10037000020C43FA05F3C01851EBE37101F000459C
:1003800007D54FF0000EDCF1000C7EEB00006EEBA9
:100390000101B1F5801F1BD3B1F5001F0CD3490833
:1003A0005FEA30004FEA3C0C04F101044FEA44528A
:1003B00012F5800F80F09A80BCF1004F08BF5FEA11
:1003C000500C50F1000041EB045141EA050130BDF1
:1003D0005FEA4C0C404141EB010111F4801FA4F194
:1003E0000104E9D191F0000F04BF01460020B1FAE9
:1003F00081F308BF2033A3F10B03B3F120020CDA21
:100400000C3208DD02F1140CC2F10C0201FA0CF0FE
:1004100021FA02F10CE002F11402D8BFC2F1200C63
:1004200001FA02F120FA0CFCDCBF41EA0C01904019
:10043000E41AA2BF01EB0451294330BD6FEA040462
:100440001F3C1CDA0C340EDC04F11404C4F120024D
:1004500020FA04F001FA02F340EA030021FA04F35F
:1004600045EA030130BDC4F10C04C4F1200220FAB6
:1004700002F001FA04F340EA0300294630BD21FAF4
:1004800004F0294630BD94F0000F83F4801306BFBA
:1004900081F480110134013D4EE77FEA645C18BFAE
:1004A0007FEA655C29D094EA050F08BF90EA020F45
:1004B00005D054EA000C04BF1946104630BD91EA3D
:1004C000030F1EBF0021002030BD5FEA545C05D140
:1004D0004000494128BF41F0004130BD14F580047F
:1004E0003CBF01F5801130BD01F0004545F0FE41F3
:1004F00041F470014FF0000030BD7FEA645C1ABF28
:10050000194610467FEA655C1CBF0B46024650EA5E
:10051000013406BF52EA033591EA030F41F400218A
:1005200030BD00BF90F0000F04BF0021704730B510
:100530004FF4806404F132044FF000054FF00001E5
:1005400050E700BF90F0000F04BF0021704730B5A6
:100550004FF4806404F1320410F0004548BF40427B
:100560004FF000013EE700BF42004FEAE2014FEAD0
:1005700031014FEA02701FBF12F07F4393F07F4FAB
:1005800081F06051704732F07F4208BF704793F0AE
:100590007F4F04BF41F40021704730B54FF46074C1
:1005A00001F0004521F000411CE700BF50EA0102C4
:1005B00008BF704730B54FF000050AE050EA01026D
:1005C00008BF704730B511F0004502D5404261EBDD
:1005D00041014FF4806404F132045FEA915C3FF41E
:1005E000D8AE4FF003025FEADC0C18BF03325FEABB
:1005F000DC0C18BF033202EBDC02C2F1200300FA6C
:1006000003FC20FA02F001FA03FE40EA0E0021FA90
:1006100002F11444BDE600BF70B54FF0FF0C4CF47E
:10062000E06C1CEA11541DBF1CEA135594EA0C0F30
:1006300095EA0C0F00F0DEF82C4481EA030621EA6B
:100640004C5123EA4C5350EA013518BF52EA0335A6
:1006500041F4801143F4801338D0A0FB02CE4FF058
:100660000005E1FB02E506F00042E0FB03E54FF088
:100670000006E1FB03569CF0000F18BF4EF0010E80
:10068000A4F1FF04B6F5007F64F5407404D25FEA7C
:100690004E0E6D4146EB060642EAC62141EA55512F
:1006A0004FEAC52040EA5E504FEACE2EB4F1FD0C71
:1006B00088BFBCF5E06F1ED8BEF1004F08BF5FEAEF
:1006C000500E50F1000041EB045170BD06F00046A1
:1006D00046EA010140EA020081EA0301B4EB5C044E
:1006E000C2BFD4EB0C0541EA045170BD41F4801146
:1006F0004FF0000E013C00F3AB8014F1360FDEBF6B
:10070000002001F0004170BDC4F10004203C35DA46
:100710000C341BDC04F11404C4F1200500FA05F3C9
:1007200020FA04F001FA05F240EA020001F000426A
:1007300021F0004110EBD37021FA04F642EB0601E0
:100740005EEA430E08BF20EAD37070BDC4F10C040A
:10075000C4F1200500FA04F320FA05F001FA04F2CE
:1007600040EA020001F0004110EBD37041F10001BA
:100770005EEA430E08BF20EAD37070BDC4F12005C5
:1007800000FA05F24EEA020E20FA04F301FA05F22D
:1007900043EA020321FA04F001F0004121FA04F2D5
:1007A00020EA020000EBD3705EEA430E08BF20EAA5
:1007B000D37070BD94F0000F0FD101F000464000DF
:1007C00041EB010111F4801F08BF013CF7D041EA61
:1007D000060195F0000F18BF704703F00046520065
:1007E00043EB030313F4801F08BF013DF7D043EA36
:1007F0000603704794EA0C0F0CEA135518BF95EAEC
:100800000C0F0CD050EA410618BF52EA4306D1D172
:1008100081EA030101F000414FF0000070BD50EA91
:10082000410606BF1046194652EA430619D094EA1B
:100830000C0F02D150EA013613D195EA0C0F05D105
:1008400052EA03361CBF104619460AD181EA030159
:1008500001F0004141F0FE4141F470014FF0000011
:1008600070BD41F0FE4141F4780170BD70B54FF0AC
:10087000FF0C4CF4E06C1CEA11541DBF1CEA13552C
:1008800094EA0C0F95EA0C0F00F0A7F8A4EB05040E
:1008900081EA030E52EA03354FEA013100F0888005
:1008A0004FEA03334FF0805545EA131343EA1263CE
:1008B0004FEA022245EA111545EA10654FEA002683
:1008C0000EF000419D4208BF964244F1FD0404F53C
:1008D000407402D25B084FEA3202B61A65EB030598
:1008E0005B084FEA32024FF480104FF4002CB6EB55
:1008F000020E75EB030E22BFB61A754640EA0C00D5
:100900005B084FEA3202B6EB020E75EB030E22BF14
:10091000B61A754640EA5C005B084FEA3202B6EB55
:10092000020E75EB030E22BFB61A754640EA9C0014
:100930005B084FEA3202B6EB020E75EB030E22BFE4
:10094000B61A754640EADC0055EA060E18D04FEAA2
:10095000051545EA16754FEA06164FEAC30343EA42
:1009600052734FEAC2025FEA1C1CC0D111F4801F0F
:100970000BD141EA00014FF000004FF0004CB6E708
:1009800011F4801F04BF01430020B4F1FD0C88BFA7
:10099000BCF5E06F3FF6AFAEB5EB030C04BFB6EBB2
:1009A000020C5FEA500C50F1000041EB045170BDA5
:1009B0000EF0004E4EEA113114EB5C04C2BFD4EBD2
:1009C0000C0541EA045170BD41F480114FF0000E56
:1009D000013C90E645EA060E8DE60CEA135594EAD2
:1009E0000C0F08BF95EA0C0F3FF43BAF94EA0C0FD5
:1009F0000AD150EA01347FF434AF95EA0C0F7FF44A
:100A000025AF104619462CE795EA0C0F06D152EA9D
:100A100003353FF4FDAE1046194622E750EA410681
:100A200018BF52EA43067FF4C5AE50EA41047FF492
:100A30000DAF52EA43057FF4EBAE12E74FF0FF3CF7
:100A400006E000BF4FF0010C02E000BF4FF0010CC8
:100A50004DF804CD4FEA410C7FEA6C5C4FEA430C41
:100A600018BF7FEA6C5C1BD001B050EA410C0CBF90
:100A700052EA430C91EA030F02BF90EA020F0020F2
:100A8000704710F1000F91EA030F58BF994208BF59
:100A900090422CBFD8176FEAE37040F00100704716
:100AA0004FEA410C7FEA6C5C02D150EA013C07D16D
:100AB0004FEA430C7FEA6C5CD6D152EA033CD3D0B8
:100AC0005DF8040B704700BF8446104662468C46B2
:100AD0001946634600E000BF01B5FFF7B7FF0028E5
:100AE00048BF10F1000F01BD4DF808EDFFF7F4FF0E
:100AF0000CBF012000205DF808FB00BF4DF808ED99
:100B0000FFF7EAFF34BF012000205DF808FB00BFBB
:100B10004DF808EDFFF7E0FF94BF012000205DF8DD
:100B200008FB00BF4DF808EDFFF7CEFF94BF012092
:100B300000205DF808FB00BF4DF808EDFFF7C4FF8B
:100B400034BF012000205DF808FB00BF4FEA4102DE
:100B5000B2F1E04324BFB3F5001CDCF1FE5C0DD91B
:100B600001F0004C4FEAC0024CEA5070B2F1004F65
:100B700040EB830008BF20F00100704711F0804F68
:100B800021D113F13872BCBF01F00040704741F42D
:100B900080114FEA5252C2F11802C2F1200C10FA31
:100BA0000CF320FA02F018BF40F001004FEAC12315
:100BB0004FEAD32303FA0CFC40EA0C0023FA02F3B9
:100BC0004FEA4303CCE77FEA625307D150EA01338F
:100BD0001EBF4FF0FE4040F44000704701F000405F
:100BE00040F0FE4040F40000704700BF7BB972B98E
:100BF0000029BEBF00204FF0004106E008BF0028DA
:100C00001CBF6FF000414FF0FF3000F0F7B9ADF1BD
:100C1000080C6DE904CE002909DB002B1ADB00F07B
:100C200087F8DDF804E0DDE9022304B070474042B4
:100C300061EB4101002B1BDB00F07AF8DDF804E0EA
:100C4000DDE9022304B0404261EB4101524263EB13
:100C500043037047524263EB430300F069F8DDF849
:100C600004E0DDE9022304B0404261EB410170473A
:100C7000524263EB430300F05BF8DDF804E0DDE98A
:100C8000022304B0524263EB4303704753B94AB99D
:100C9000002908BF00281CBF4FF0FF314FF0FF3084
:100CA00000F0ACB9ADF1080C6DE904CE00F040F8ED
:100CB000DDF804E0DDE9022304B0704738B5002216
:100CC000002304460D46FFF719FF28B920462946A0
:100CD000BDE8384000F00AB8204605F1004100F0B8
:100CE00005F8404261EB410138BD00BFD0B500229C
:100CF0000D4B06460F46FFF78FFC00F081F90446C6
:100D0000FFF710FC0022094BFFF786FC02460B465A
:100D100030463946FFF7C8FA00F072F90022234640
:100D200010431946D0BD00BF0000F03D0000F04167
:100D30002DE9F047089E04468846002B4BD18A4295
:100D4000154667D9B2FA82F24AB1C2F1200701FA18
:100D500002F320FA07F7954047EA030894404FEA68
:100D6000154E230CB8FBFEF71FFA85FC0EFB178807
:100D700043EA084307FB0CF1994209D9EB1807F144
:100D8000FF3080F01B81994240F21881023F2B44D2
:100D90005B1AA4B2B3FBFEF00EFB103344EA03442B
:100DA00000FB0CFCA44509D92C1900F1FF3380F09D
:100DB0000781A44540F2048102382C4440EA0740F0
:100DC000A4EB0C0400271EB1D4400023C6E9004365
:100DD0003946BDE8F0878B4209D9002E00F0EB8040
:100DE0000027C6E9000138463946BDE8F087B3FA66
:100DF00083F7002F47D18B4202D3824200F2FA8060
:100E0000841A61EB030301209846002EE0D0C6E966
:100E10000048DDE702B9FFDEB2FA82F2002A40F0B4
:100E20008F80491B4FEA154E1FFA85F80127B1FB49
:100E3000FEFC230C0EFB1C1143EA014308FB0CF1E2
:100E4000994207D9EB180CF1FF3002D2994200F217
:100E5000CD808446591AA3B2B1FBFEF00EFB1014EC
:100E600043EA044408FB00F8A04507D92C1900F117
:100E7000FF3302D2A04500F2B6801846A4EB080466
:100E800040EA0C409FE7C7F1200CBB4022FA0CFE61
:100E90004EEA030E01FA07F420FA0CF521FA0CF3DE
:100EA0004FEA1E482543B3FBF8F92C0C08FB193315
:100EB0001FFA8EFA44EA034309FB0AF49C4202FA41
:100EC00007F200FA07F10BD91EEB030309F1FF301B
:100ED00080F087809C4240F28480A9F1020973442B
:100EE0001B1BADB2B3FBF8F008FB103345EA03441B
:100EF00000FB0AFAA24508D91EEB040400F1FF33F7
:100F00006BD2A24569D90238744440EA0940A0FB7B
:100F10000289A4EB0A044C45C2464B4654D351D037
:100F2000002E69D0B1EB0A0564EB030404FA0CFC53
:100F3000FD40FC404CEA0505C6E90054002747E7A0
:100F4000C2F1200320FA03F7954001FA02F021FADA
:100F500003F34FEA154E3843010CB3FBFEF71FFABB
:100F600085F80EFB173341EA034107FB08F38B4278
:100F700004FA02F407D9691807F1FF3C2FD28B421B
:100F80002DD9023F2944CB1A81B2B3FBFEF00EFBF0
:100F9000103341EA034100FB08F38B4207D969187B
:100FA00000F1FF3C17D28B4215D902382944C91AE7
:100FB00040EA07473BE73746304609E70746E7E69A
:100FC0001846FBE64145ABD2B8EB020A69EB0E02CC
:100FD00001381346A4E76046E9E7184695E76746F7
:100FE000D1E781467CE702382C4447E7ACF1020C9C
:100FF0002B442FE7384608E73746E9E6704700BF3D
:101000004A0011D212F5001211D20DD56FF4787387
:10101000B3EB62520ED44FEAC12343F0004343EADC
:10102000505323FA02F070474FF00000704750EA27
:10103000013002D14FF0FF3070474FF00000704791
:101040000020704708B50146034808F0F9F908B9CF
:10105000012008BD0020FCE7A4A1012010B58EB03E
:101060001446032924D8DFE801F002050E180020F9
:101070000EB010BD01AA0146114808F0F3F9C8B935
:10108000029B2360F4E701AA01460D4808F0EAF943
:1010900090B9BDF80C302360EAE701AA0146084880
:1010A00008F0E0F950B9BDF80C305B0A2360DFE7C7
:1010B0000420DDE70120DBE70120D9E70120D7E7A5
:1010C000A4A1012010B590B0044600930B46014640
:1010D000104808F0E9F910B9002010B010BD03AABB
:1010E00021460C4808F0BEF99DF81930282B05D090
:1010F0003A2B03D0042B01D00120EEE706481EF066
:1011000033FC06481EF030FC0A201EF07BFC032056
:10111000E3E700BFA4A10120EC090208F4090208DA
:1011200010B590B0044600930B460146174808F0EE
:1011300005FA10B9002010B010BD03AA21461348CB
:1011400008F090F99DF81930272B13D00ED9282BD1
:1011500001D03A2B0CD10E481EF006FC0D481EF0B3
:1011600003FC0A201EF04EFC0320E4E7042BF2D01F
:101170000120E0E706481EF0F7FB07481EF0F4FBED
:101180000A201EF03FFC0220D5E700BFA4A10120E9
:10119000EC090208F40902080C0A020808B5034920
:1011A000034804F09DFF034B187008BD389D0120D3
:1011B000D8090208A0A101200020704730B58DB0E9
:1011C0000546014611481EF0CFFB2946684604F04B
:1011D000ACFE0446B0B90E49684604F007FF044669
:1011E00068B90B4B5B7A53B1094B1B7A13F0100FA4
:1011F000F1D1084A294608481EF0B6FBEBE76846DD
:1012000004F0DCFE20460DB030BD00BF2C0A020801
:1012100040030020490300203C0A020808B50D489D
:101220001EF060FC01220C490C4804F08FFA40B11A
:1012300000220949104604F089FA09481EF052FCC0
:1012400008BD0848FFF7BAFF00220349104604F022
:101250007DFAF5E7540A0208FC4802086C9F012059
:10126000600A0208389D0120F8B504460E4617466C
:1012700001221949194804F069FA28BB2046FFF7F2
:1012800007F8043004F090FF0546224614491EF08A
:1012900099FC3A462946304604F09CFA0446284612
:1012A00005F006F814B93CB90020F8BD00220A493F
:1012B000104604F04BFAF6E722460A490A481EF0A7
:1012C00053FB4FF0FF30F0E70246084906481EF096
:1012D0004BFB4FF0FF30E8E7FC4802086C9F012011
:1012E000740A02087C0A0208880A0208A00A020896
:1012F00010B504F0FDFD044600220749104604F035
:1013000025FA0CB9002010BD2246044904481EF0FD
:101310002BFB4FF0FF30F6E7FC480208440A0208B6
:10132000880A020800B583B001AB04F06EFC18B95E
:10133000002003B05DF804FB0246034903481EF099
:1013400013FB4FF0FF30F4E7B00A0208880A0208E6
:1013500004290CD0052902D0022904D07047064B7D
:1013600003221A707047044B02221A707047024B16
:1013700001221A70F2E700BF58030020034B1878CF
:10138000022814BF00200120704700BF580300202E
:1013900010B5074C01220749204606F05FFE0649BA
:1013A000204606F09BFE204606F02FFF10BD00BF32
:1013B000A4A10120511300080C0000200368B3F120
:1013C000A04F00D0704710B586B04FF4C0530193C2
:1013D0000223029300240394032304930A23059316
:1013E00001A90E4802F06AFF0D4B5A6B42F08002D1
:1013F0005A6300945A6C42F480425A645B6C03F462
:1014000080430093009B22460521432003F066F8A9
:10141000432003F097F806B010BD00BF0000024063
:101420000038024008B5D0F8940207F051F808BD22
:1014300008B5D0F8940207F054F808BD08B5D0F804
:10144000940207F069F808BD08B5D0F8940207F0D7
:101450008DF808BD90F8BC33012B01D000207047F7
:1014600010B504461048C0F89442C4F8C0034FF0C9
:10147000A0430360082383600323C3600023036148
:1014800002228261C36100F0BEFD40B9064801F04E
:10149000B0FA0146204607F018F8002010BDD82108
:1014A000024814F0ADF9F1E774A50120C00A020862
:1014B00008B5D0F8C00301F062FA18B1022803D0D1
:1014C000022008BD0020FCE70120FAE708B5D0F8AB
:1014D000C00301F06AFA18B1022803D0022008BD47
:1014E0000020FCE70120FAE708B5D0F8C00301F0BE
:1014F00085FA18B1022803D0012008BD0020FCE7BE
:101500000220FAE708B5D0F8C00301F060FA18B17C
:10151000022803D0022008BD0020FCE70120FAE7E2
:1015200008B5D0F8C00301F05EFA08BD10B584B06C
:10153000D0F8C003BDF8204002949DF81C400194EF
:101540009DF81840009400F013FD20B1022804D04B
:10155000022004B010BD0020FBE70120F9E708B528
:10156000D0F8C00300F03DFD18B1022803D00220DE
:1015700008BD0020FCE70120FAE710B584B0D0F8E0
:10158000C0039DF824400394BDF820400294079CBA
:1015900001949DF81840009400F071FD20B10228DC
:1015A00004D0022004B010BD0020FBE70120F9E7C1
:1015B00008B5D0F8C00301F00FFA08BD08B5C8207F
:1015C00003F01EF8002008BD10B4D0F8C03301EBC2
:1015D0008104E0000446184490F83B0048B901EB50
:1015E0008101C800034483F8512000205DF8044BBA
:1015F0007047234483F85020F7E7D0F8C03301EB5D
:101600008100C20010461A4492F83B2032B901EB27
:101610008101CA00134493F851007047034493F8C2
:101620005000704708B502F0EBFF08BD5079137900
:1016300043EA002307480B50D07893781B0443EA11
:101640000063507843EA002312781343024A8B5018
:10165000704700BF4080024044800240016841F270
:1016600018028B5843F400538B507047016841F2C5
:1016700018028B5843F002038B50704782B0084B1E
:101680001B68084AA2FB03235B0A00FB03F00190DE
:1016900000BF019B5A1E0192002BF9D102B0704786
:1016A00004000020D34D621010B582B00446002320
:1016B00001930268136843F00803136003681B6812
:1016C00001930120FFF7DAFF2368019A1A6002B044
:1016D00010BD10B582B00446002301930268136860
:1016E00043F00403136003681B6801930120FFF7B4
:1016F000C5FF2368019A1A6002B010BD30B583B0EF
:10170000054600230193026841F21804135943F47B
:101710008013135103681B5901930120FFF7AEFF9B
:101720002B68019A1A5103B030BD000070B59EB00D
:10173000044629B14FF40063C3604FF480438360D3
:10174000E369002B6AD14FF48063079321680B682B
:10175000394A1A40A368E06803430798034343F4F7
:10176000007313430B6023681D68012002F048FFDB
:1017700023681D60236840225A6023685D68012049
:1017800002F03EFF23685D60236800259D602368AA
:10179000DD602268936923F0BE031B041B0C43F039
:1017A0008003936123689E69012002F029FF23686A
:1017B0009E612368DD612368DD69012002F020FF5E
:1017C0002368DD61226841F2180551591B4B0B401B
:1017D00043F0087343F00403535123685E5901201A
:1017E00002F00EFF23685E51236803F58053144A0C
:1017F0001A60236803F580531D68012002F000FF82
:10180000236803F580531D60A369012B09D0626929
:1018100000212046FFF70AFF1EB070BD002307938A
:1018200094E7216841F21C028B5843F4803343F063
:1018300040038B50EBE700BF0F8120FF233FDEF812
:101840008020C102F0B490F84540012C31D0012431
:1018500080F84540022480F84440C162002401E041
:10186000F96001349C4217D265014F194FF480167C
:101870004E5140F2F45606FB0426BE60C6691EB9FE
:101880004E5946F440064E515D1EA542E8D9651CEE
:1018900001EB4515FD60E4E7026841F21003D15009
:1018A000012380F84430002380F845301846F0BC0E
:1018B00070470220FBE7F0B490F84540012C2ED091
:1018C000012480F84540022480F8444081620024CD
:1018D00001E0E96001349C4214D266018D194FF099
:1018E00000478F5144F2F4566E6040F2F45606FB06
:1018F0000426AE605E1EA642EBD9661C01EB4616BE
:10190000EE60E7E7026841F20C03D150012380F852
:101910004430002380F845301846F0BC7047022060
:10192000FBE7000090F84530012B00F08580012393
:1019300080F84530022380F84430B1B1C36A1A6898
:10194000002A1ADB30B440F2F45291421DD93B4ACE
:10195000A2FB0142920A40F2F45404FB121404B1B7
:101960000132012A11D0002347E0012380F84430DE
:10197000002280F8452018467047122380F8443032
:10198000002380F84530012070471A6842F0405229
:101990001A60C36AC1F30C015960C26A136843F04C
:1019A00000431360C36ADB68C362036841F2140238
:1019B0009A5812F0040F08D041F2140204219950F1
:1019C000026841F204030021D150012380F8443021
:1019D000002380F84530184630BC7047C56A2C6833
:1019E00044F080542C6011E0C56A2C6844F0004437
:1019F0002C60C46AE468C46201339A42D5D9C56ACE
:101A00002C6824F040542C60002BE7D0C46A40F2CC
:101A1000F4556560541E9C42E6D1C56A2C6844F0BA
:101A200000542C60064C04FB021404F2F454C56A02
:101A3000C4F30C046C60D7E7022070470BB002AC13
:101A40000CFAFFFF90F84530012B45D0012380F8B8
:101A50004530022380F844300021836A1A68002A46
:101A600032DB032930D801311A6802F44072B2F532
:101A7000007F09D01A6812F4407F0BD1826B0132CB
:101A80008263DB688362E8E7036301228263DB68C9
:101A90008362E2E74363826B01328263012A11D0E1
:101AA0001A68C2F30D42043AC263026B9268026480
:101AB000DB688362012380F84430002380F84530DE
:101AC000184670470363EBE7012380F84430002297
:101AD00080F84520184670470220704770477047CD
:101AE00010B50446036841F214029A5812F0400FF0
:101AF00011D141F214029B5813F0010F19D1226841
:101B000041F214034FF48031D1502268D35813F4BA
:101B1000004F1BD110BD14F02FF9226841F21403BD
:101B20004021D150012384F84430002384F845300B
:101B3000E5E7FFF7D3FF2168012341F214028B5040
:101B400084F84430002384F84530D8E72046FFF776
:101B5000C6FF226841F214034FF40041D150012323
:101B600084F84430002384F84530D3E7F8B590F882
:101B70004430DBB2822B33D016460546822380F8F0
:101B800044300268136903F01C03048AE402A4B21F
:101B900023438C0104F4F8641C4344F001041461F1
:101BA00002F028FD074614F0010F10D002F022FDCC
:101BB000C01BB0F5803F02D22B681C69F3E70123FC
:101BC00085F84430002385F84530032007E02B6872
:101BD0005B699BB23360012385F844300020F8BD77
:101BE0000220FCE790F84430DBB2422B32D070B5D3
:101BF0000546422380F844300068036903F01C0363
:101C00002C8AE402A4B223438C0104F4F8641C433C
:101C100044F0030492B242612B681C6102F0EAFCBA
:101C2000064614F0010F10D002F0E4FC801BB0F562
:101C3000803F02D22B681C69F3E7012385F844300A
:101C4000002385F84530032003E0012385F8443064
:101C5000002070BD0220704770B582B00023019350
:101C6000002800F00E81044690F84430002B34D058
:101C700000230093844B5A6C42F480425A645B6C9C
:101C800003F480430093009B804B5A6822F40002C7
:101C90005A605A68216A0A435A60236803F58053E0
:101CA0001A6842F001021A6002F0A4FC054623689B
:101CB00003F58052126812F0010F13D002F09AFC63
:101CC000401BB0F5FA7FF2D9032584F84450002375
:101CD00084F84530284602B070BD80F8453013F0D6
:101CE000E1FFC5E71D6925F01C0502F0A3FA684B6A
:101CF0000344684A934255D845F0080523681D619E
:101D00004FF4004200212046FFF76CFF05460028F3
:101D100060D1FF2002F074FC6368002B00F091801A
:101D200002F068FC064601AA01212046FFF71EFFCB
:101D300002F060FC801B41F28833984252D8019B2C
:101D400013F0040FEFD04FF4805200212046FFF72C
:101D500049FF002852D102F04DFC064601AA01219C
:101D60002046FFF703FF02F045FC801B41F2883359
:101D700098424BD8019B13F0200FEFD001AA1021FD
:101D80002046FFF7F3FE00284CD1019B13F0040F0F
:101D900050D04FF40062E26013F0020F4DD00023E8
:101DA000A3605EE03C4B03443C4A934202D845F0BA
:101DB0000C05A3E73A4B03443A4A93429ED93A4B67
:101DC00003443A4A934202D845F0040596E745F0A9
:101DD000100593E701212046FFF7A8FC012584F8B0
:101DE000445077E701212046FFF7A0FC012384F847
:101DF0004430002384F8453003256BE70121204659
:101E0000FFF794FC012584F8445063E70121204644
:101E1000FFF78CFC012384F84430002384F845301C
:101E2000032557E701212046FFF780FC012584F8B0
:101E300044504FE70022E260AEE74FF48043A360D6
:101E40000FE0E268C2F3CF02A368C3F34F031A4363
:101E500000212046FFF7C6FE58B940F6FF7002F099
:101E6000CFFB00212046FFF761FC012384F84430BA
:101E700030E701212046FFF759FC012584F8445042
:101E800028E7012526E700BF00380240003801405E
:101E900000D3CEFEBFE1E40040F1E9FD3F787D01D3
:101EA00000796CFCFF596202001F0AFA7FF0FA0207
:101EB00038B590F84530012B1AD00446012580F83A
:101EC0004550022380F84430FFF7EEFB2046FFF731
:101ED00000FC2046FFF712FC2046FFF7BFFB204620
:101EE000FFF7C4FB84F84450002084F8450038BD57
:101EF0000220FCE7F8B50668346A04F00F07C4F363
:101F00004343C4F30A14022B2ED16CB307EB8702B0
:101F1000D3000344596C39B305462246304600F0DD
:101F20000DFEBA003A44D3002B445A6C22445A6442
:101F3000DA6C2244DA6406EB4713D3F810150B4A27
:101F40000A408AB1D3F8002522F0804242F00042D4
:101F5000C3F80025BB00D919CA002A4492F85030B2
:101F600083F0010382F85030F8BD00BF0000F81F75
:101F7000F0B585B09DF828609DF82C70BDF830C094
:101F800090F89042012C2AD00546012085F8900255
:101F9000880000EB010E4FEACE042C4484F8383060
:101FA000A4F840C084F8391084F83F7002F07F0E26
:101FB00084F83AE04FEAD21E84F83BE00844C400BB
:101FC0002C4484F83C60CDF808C00197009628683E
:101FD00000F0CDFE002385F8903205B0F0BD022060
:101FE000FBE790F89032012B0BD010B5044601238B
:101FF00080F89032006801F074F8002084F89002B4
:1020000010BD02207047002837D0F0B58BB00646CF
:10201000032380F89132FFF7D1F9306800F037FDE3
:10202000344654F810CB6D460FCC0FC50FCC0FC5FE
:1020300094E8030085E80300371D97E80E0060462A
:1020400000F0E1FC0121306800F027FD344654F82F
:1020500010CB6D460FCC0FC50FCC0FC594E8030015
:1020600085E8030097E80E00604600F0A1FD01231B
:1020700086F8913200200BB0F0BD01207047F8B512
:102080009DF81870BDF820609DF824C08D000D44A7
:10209000EC00044484F83B2084F83F306FB901EB36
:1020A0008105EC000444032584F84250032B00F220
:1020B000B380DFE803F00AAA3E7B01EB8105EC0068
:1020C0000444022584F84250F0E7012F40F0A48038
:1020D000002A40F0A18036B901EB8102D30003440D
:1020E000012283F8512001EB8102D300034493F8CD
:1020F0005130B3B901EB8102D3000344002283F8CD
:10210000422001EB8102D300034493F85C30022BA0
:1021100000F0828001EB8102D300034483F83DC0CC
:102120007AE001EB8102D3000344022283F84220CB
:10213000E7E722BB01EB8102D300034493F851305F
:10214000ABB901EB8102D3000344002283F84220A3
:1021500001EB8102D300034493F85C30022B5BD087
:1021600001EB8102D300034483F83DC054E001EB4E
:102170008102D3000344022283F84220E8E701EB06
:102180008102D300034493F850303BB901EB810244
:10219000D3000344002283F842203DE001EB81029A
:1021A000D3000344022283F8422035E0B2B901EBA8
:1021B0008102D300034493F851303BB901EB810213
:1021C000D3000344002283F8422025E001EB810282
:1021D000D3000344022283F842201DE001EB810278
:1021E000D300034493F850303BB901EB8102D30094
:1021F0000344002283F842200EE001EB8102D30069
:102200000344022283F8422006E001EB8102D3005E
:102210000344002283F842208A005418E300034458
:10222000079C5C649E64002483F85C40DC6483F853
:10223000391083F85D401144CB0003F13801027C72
:102240000144006800F004FEF8BD30B583B00546D7
:102250000468D4F840340193D4F840340093009BD0
:1022600023F02E030093019B13F0020F07D0019B74
:1022700013F0010F25D1009B43F002030093019B53
:1022800013F0080F10D0009B43F008030093019B4C
:1022900013F0040F31D0AB69022B19D0EB68032B7C
:1022A00026D02846FFF7C4F8019B13F0200F03D077
:1022B000009B43F020030093009BC4F8403403B01C
:1022C00030BDA36923F00053A361FFF7B1F8D2E753
:1022D000019B03F4C023B3F5802F04D001212868AB
:1022E00000F0DCFCDDE70221286800F0D7FCD8E72D
:1022F0004EF66022C4F80424D3E7D4F8403423F027
:102300002E03C4F840342A68936943F00053936164
:10231000CAE7F8B506460D46076807EB411707F50B
:10232000A064A36813F0040F41D00423A360E36802
:1023300043F00203E360A36813F4007F6DD1A36848
:1023400013F0010F00F08A80336963B1AB005919B3
:10235000CA003244916C2269C2F31202891A2B44DA
:10236000DA003244D164AA002A44D3003344012263
:1023700083F85D2000219965A26093F83F30002B1F
:1023800057D0022B55D0032B5DD1D7F8003543F041
:102390000053C7F8003505EB8502D3003344012212
:1023A00083F85C2029463046FFF74EF84BE0A368DF
:1023B00013F0200F02D02023A360BCE7A36813F022
:1023C000080F17D1A36813F4806FB4D0E36843F00B
:1023D0000203E360006800F084FE1023A36005EBB5
:1023E0008502D3003344082283F85D204FF48063D4
:1023F000A360A0E7E36843F00203E36001EB81021E
:10240000D3000344052283F85D201023A360082332
:10241000A360006800F065FE8DE7E36843F0020307
:10242000E3602946306800F05CFE4FF40073A3605F
:1024300013E0E36843F00203E3602946306800F0EC
:1024400050FE1023A360AB005919CA00324492F821
:10245000503083F0010382F85030F8BDA36813F0C8
:10246000020F50D0E36823F00203E36005EB85021E
:10247000D300334493F85D30012B20D0052B32D0AC
:10248000062B01D0082B21D1AA002A44D3003344C3
:102490009A6D511C9965032A2DD9AA002A44D300AC
:1024A000334400229A65042283F85C20D7F8003573
:1024B00023F0804343F00043C7F8003506E005EB06
:1024C0008502D3003344012283F85C200223A360F9
:1024D00005EB8502D300334493F85C20294630464F
:1024E000FEF7B2FFB9E705EB8502D30033440522BE
:1024F00083F85C20EAE705EB8502D300334402222F
:1025000083F85C20D2E7A36813F0800F26D1A3687C
:1025100013F0100FA1D005EB8502D300334493F8DC
:102520003F30032B32D0AB005919CA00324403218B
:1025300082F85D101022A2601D4405FA01F31E44CA
:1025400096F83F300BB1022B87D1D7F8003523F036
:10255000804343F00043C7F800357EE7E36843F06B
:102560000203E360AB005919CA003244916D013196
:1025700091652B44DA003244062382F85D30294607
:10258000306800F0AEFD8023A36066E7E36843F0A7
:102590000203E3602946306800F0A3FDC3E7F8B505
:1025A000046804EB411404F5A064A36813F0040F5D
:1025B00024D10E460546A36813F0200F25D0202312
:1025C000A36001EB8102D300034493F83D30012B5B
:1025D0001AD18F007A18D3000344042283F85D20B7
:1025E000E36843F00203E360006800F07AFDB91984
:1025F000C8002844022380F85C3005E00423A3606F
:10260000E36843F00203E360F8BDA36813F0400FF2
:102610004CD1A36813F4007F5FD1A36813F0010FBE
:1026200066D1A36813F0080F77D1A36813F0100FD9
:1026300040F08480A36813F0800F40F09580A36879
:1026400013F4806F40F0A180A36813F0020FDBD079
:10265000E36823F00203E36001EB8102D30003444B
:1026600093F85D30012B00F0A480032B00F0C480B0
:10267000042B00F0C980052B00F0D180062B02D07E
:10268000082B40F0A180B2003244D3002B449A6D55
:10269000511C9965032A40F2CA80282303FB065384
:1026A00000229A65042283F85C208DE08B00591883
:1026B000CA000244042182F85D103344DA00024467
:1026C00000239365E36843F00203E360314600684A
:1026D00000F007FD4023A36096E7E36843F00203A0
:1026E000E360006800F0FDFC4FF40073A3608BE72B
:1026F0008F007A18D300034400229A65E36843F000
:102700000203E360006800F0ECFC0123A360B91948
:10271000C800284480F85D3076E70823A360E368AA
:1027200043F00203E360006800F0DBFC06EB860187
:10273000C8002844052380F85D3065E78F007A18CB
:10274000D300034400229A65E36843F00203E36088
:10275000006800F0C6FCB919C8002844032380F8BB
:102760005D301023A3604FE7E36843F00203E360AA
:10277000006800F0B6FC06EB8601CB002B44062275
:1027800083F85D208023A3603EE7E36843F0020303
:10279000E360006800F0A5FC1023A3604FF48063A1
:1027A000A36006EB8601CB002B44082283F85D2052
:1027B0002AE78A000A44D3000344012283F85C20FC
:1027C00093F83F30022B0CD00223A36006EB860265
:1027D000D3002B4493F85C2031462846FEF734FEA4
:1027E00012E78A000A44D300034493F8512082F090
:1027F000010283F85120E7E701EB8102D300034493
:10280000022283F85C20DFE78A000A44D3000344F5
:10281000022283F85C20002283F83D20D4E701EBFC
:102820008102D3000344052283F85C20CCE72823EF
:1028300003FB0653022283F85C20C5E7F8B5044683
:102840000568284600F092F9012800D0F8BD2068FC
:1028500000F088F90028F9D0206800F083F910F41E
:10286000001F03D023684FF400125A61206800F063
:1028700079F910F4801F03D023684FF480125A6155
:10288000206800F06FF910F0806F03D023684FF0DC
:1028900080625A61206800F065F910F0020F02D0E2
:1028A000236802225A61206800F05CF910F0005F92
:1028B00025D1206800F056F910F0807F31D12068D2
:1028C00000F050F910F0080F2FD1206800F04AF9FD
:1028D00010F0007F30D1206800F044F910F0100FA4
:1028E000B4D02268936923F0100393612046FFF768
:1028F00001FB2268936943F010039361A6E7D5F8C2
:10290000403423F02E03C5F840342046FEF796FDF0
:102910000121206800F0C2F923684FF000525A618B
:10292000C7E72046FFF791FCC9E72046FEF77AFD8E
:10293000236808225A61C8E7206800F0C3FB0746F5
:10294000002604E0F1B22046FFF729FE0136A36815
:10295000B3420FD90123B3403B42F7D005EB4613F6
:10296000D3F8003513F4004FECD0F1B22046FFF756
:10297000D0FCEBE723684FF000725A61ABE738B543
:1029800090F89032012B0ED00446012580F8905229
:10299000006800F076F82946206800F0B9F90020B8
:1029A00084F8900238BD0220FCE790F89032012BA9
:1029B0000BD010B50446012380F89032006800F077
:1029C000ABFC002084F8900210BD0220704708B5CF
:1029D000006800F083F908BD01EB8101CB001844C9
:1029E00090F85C00704701EB8101CB001844C06C8B
:1029F000704708B5006800F0B5F908BD08B5006873
:102A000000F0A7F908BD84B010B5044603A880E81B
:102A10000E00089B012B20D1A36B23F48033A3630A
:102A2000E36823F4840323F04003E360E36823F4C2
:102A30004013E3600F9B012B0AD0204600F09AF868
:102A4000069B012B14D00020BDE8104004B0704755
:102A5000E36843F48013E360EFE7E36843F0400387
:102A6000E360204600F086F84FF48033A363E7E785
:102A7000A36843F00603A360A36843F02003A360A8
:102A8000E1E7836843F001038360002070478368B7
:102A900023F0010383600020704708B5C36823F06A
:102AA000C043C360012909D019B9C36843F080430A
:102AB000C360322001F0A4FD002008BDC36843F0CC
:102AC0000053C360F5E70000890141F02001016176
:102AD00000230133054A934205D8026912F0200F02
:102AE000F7D1002070470320704700BF400D03005E
:102AF0001023036100230133054A934205D802697C
:102B000012F0100FF7D1002070470320704700BF6C
:102B1000400D030070B49DF80C4064B903339D0868
:102B200007E000EB023303F5805351F8046B1E609D
:102B30000134AC42F5D3002070BC704703329208D8
:102B4000002393420CD210B400F58054246841F85D
:102B5000044B01339342F7D308465DF8044B7047AA
:102B6000084670474269806910407047406900F02C
:102B700001007047002301330C4A934211D80269C7
:102B8000002AF8DA036943F00103036100230133EB
:102B9000064A934207D8026912F0010FF7D10020CC
:102BA0007047032070470320704700BF400D0300AB
:102BB00084B038B5044605A880E80E0025460023F9
:102BC000C4F8003EA36B23F48023A363A36B23F418
:102BD0000023A363A36B43F40013A363079B032B9E
:102BE0000ED0D4F8003423F00403C4F800341021CC
:102BF0002046FFF769FF2046FFF77AFF002213E027
:102C0000B4F1A04FEDD0D4F8003443F00403C4F87D
:102C10000034ECE705EB42134FF0FF31C3F8081521
:102C20000021C3F80C150132069B9342F2D8012112
:102C3000204600F06DF8C82001F0E2FC0023A361FB
:102C40004FF0FF336361B4F1A04F17D04FF400731E
:102C5000636203F18073A3620D4BC4F80031089BDB
:102C60001BB9A36943F01003A361A269094B134385
:102C7000A3610020BDE8384004B070478023636240
:102C800003F5C003A362044BC4F80031E7E700BFBB
:102C90000003E000080020A3E000400010B400F5AD
:102CA0008064D0F8003423F00303C0F80034D0F877
:102CB000003401F003021343C0F80034012905D0A9
:102CC000022907D000205DF8044B70474BF6803393
:102CD0006360F7E741F270736360F3E710B582B0A9
:102CE0000446D0F840340193019B23F02E03019356
:102CF000019B43F48073C0F840340A2001F080FC4B
:102D0000019B23F48073C4F84034002002B010BD4E
:102D100082B0D0F840340193019B23F02E0301933D
:102D2000019B13F4805F01D101290CD0019B13F4A6
:102D3000805F05D021B9019B23F48053C0F8403453
:102D4000002002B07047019B43F48053C0F8403428
:102D5000ECE782B0D0F8403401930198C0F34140D1
:102D600002B0704700F58060806880B27047F0B4B0
:102D70009DF8144000EB411505F5A0664FF0FF37B4
:102D8000B760032C1CD8DFE804F0024D021540F2B6
:102D90009D47F76012F0800F07D1B0F1A04F0FD020
:102DA000F76847F06007F7600AE0F76847F4807754
:102DB000F76005E040F29D67F76012F0800F2CD1BC
:102DC000D0F81864012707FA01F13143C0F818144C
:102DD000816941F0007181619B0503F0FE53D102CE
:102DE00001F4F0410B4352B202F4004213439DF848
:102DF0001020022A21D000221343A20402F4402210
:102E00001343BDF81820C2F30A021343C5F8003576
:102E1000032C15D00020F0BC7047F76847F480778A
:102E2000F760CDE740F22527F76012F0800FC7D09A
:102E3000F76847F4C077F760C2E74FF40032DBE78A
:102E4000D5F8003543F00053C5F80035E2E700003F
:102E500080B58AB002AFF860B9601346FB710023F9
:102E60007B7700237B830023FB834FF480733B83BA
:102E700000237B61FB68B3F1A04F2AD0BB681B79AC
:102E8000002B26D1FB79002B0BD1BB685B79012B82
:102E900007D1BB685B781946F86800F003FA002395
:102EA00009E1FB79012B14D1BB685B785A01FB68FF
:102EB000134403F5A063DB68BA6852785101FA68DD
:102EC0000A4402F5A06223F06003D360BB680022CD
:102ED0005A71BB681B69002B19D0BB681B69BA68A3
:102EE00012891344013BBA681289B3FBF2F3FB83E6
:102EF000FA8B3B8B9A420CD93B8BFB83FB8BBA68DA
:102F0000128902FB03F31A46BB681A6101E0012330
:102F1000FB83BB68DB78002B07D0FB8BBA68128978
:102F200002FB03F31A46BB681A61BB681B69C3F353
:102F30001202FB8BDB041946614B0B401A43BB6842
:102F40009B7A5B0703F0C043B96849784801F96888
:102F5000014401F5A06113430B61FB79002B0AD0FA
:102F6000BB68D968BB685B785A01FB68134403F5FA
:102F7000A0630A465A61FB6803F580639B6803F00F
:102F80000103002B0CBF01230023DBB27B77BB685E
:102F90005B785A01FB68134403F5A0631B68BA68A9
:102FA00052785101FA680A4402F5A06223F00053F6
:102FB0001360BB685B785A01FB68134403F5A06398
:102FC0001B687A7F52071046BA6852785101FA6836
:102FD0000A4402F5A06203431360BB685B785A01A0
:102FE000FB68134403F5A0631B687B617B6923F0D6
:102FF00080437B617B6943F000437B61BB685B7806
:103000005A01FB68134403F5A0631A467B691360F9
:10301000FB79002B4ED1BB68DB78002B4AD1BB6813
:103020001B69002B46D0BB68DB79032B30D801A28B
:1030300052F823F045300008693000084530000898
:1030400069300008BB681B6903339B087B837A8B5C
:10305000FB68DB6A9BB29A421CD9FB689B6943F010
:103060002002FB689A6115E0BB681B6903339B086B
:103070007B837A8BFB6803F580631B699BB29A4262
:103080000AD9FB689B6943F08062FB689A6103E0A0
:1030900000BF02E000BF00E000BFBB68D968BB68AA
:1030A0005A78BB681B6998B2002300930346F868FE
:1030B000FFF730FD002318462037BD4680BD00BF16
:1030C0000000F81F80B483B000AF78607B6803F520
:1030D00080635B699BB218460C37BD465DF8047B84
:1030E000704780B485B000AF78600B46FB7000235A
:1030F000FB60FB785A017B68134403F5A0631B68EF
:103100009B0C03F00303002B0BD0FB785A017B6868
:10311000134403F5A0631B689B0C03F00303022B0D
:103120005CD1FB785A017B68134403F5A0631B68EC
:10313000FA7851017A680A4402F5A06243F08043AC
:1031400013607B68DB6A03F47F03002B33D1FB78C9
:103150005A017B68134403F5A0631B68FA78510198
:103160007A680A4402F5A06223F000431360FB78FA
:103170005A017B68134403F5A0631B68FA78510178
:103180007A680A4402F5A06243F000431360FB68CA
:103190000133FB60FB68B3F57A7F1DD8FB785A01D9
:1031A0007B68134403F5A0631B6803F00043B3F18D
:1031B000004FECD06FE0FB785A017B68134403F5B5
:1031C000A0631B68FA7851017A680A4402F5A0628C
:1031D00043F0004313605EE000BF5CE0FB785A01FF
:1031E0007B68134403F5A0631B68FA7851017A6881
:1031F0000A4402F5A06243F0804313607B6803F544
:1032000080631B699BB2002B33D1FB785A017B682A
:10321000134403F5A0631B68FA7851017A680A44E5
:1032200002F5A06223F000431360FB785A017B682B
:10323000134403F5A0631B68FA7851017A680A44C5
:1032400002F5A06243F000431360FB680133FB60AA
:10325000FB68B3F57A7F1DD8FB785A017B6813446D
:1032600003F5A0631B6803F00043B3F1004FECD0FB
:1032700011E0FB785A017B68134403F5A0631B68D7
:10328000FA7851017A680A4402F5A06243F00043DB
:10329000136000E000BF002318461437BD465DF8F8
:1032A000047B704780B485B000AF78600B46FB703C
:1032B0000123FB730023BB60FB7BDB041A46154B29
:1032C0001340FA7851017A680A4402F5A06243F08B
:1032D00000431361FB785A017B68134403F5A06334
:1032E0001B68BB60BB6823F08043BB60BB6843F0D6
:1032F0000043BB60FB785A017B68134403F5A0636D
:103300001A46BB681360002318461437BD465DF8A3
:10331000047B70470000F81F80B586B000AF78606E
:1033200000233B617868FFF7B2FB10217868FFF754
:10333000CBFB7868FFF7DCFB0023FB751FE0FB7D10
:103340005A017B68134403F5A0631B68FB60FB68AC
:1033500043F08043FB60FB6823F00043FB60FB68A5
:1033600023F40043FB60FB7D5A017B68134403F5A3
:10337000A0631A46FB681360FB7D0133FB75FB7D80
:103380000F2BDCD90023FB7534E0FB7D5A017B68F1
:10339000134403F5A0631B68FB60FB6843F08043A4
:1033A000FB60FB6843F00043FB60FB6823F40043D1
:1033B000FB60FB7D5A017B68134403F5A0631A464A
:1033C000FB6813603B6901333B613B69B3F57A7F6E
:1033D0000CD8FB7D5A017B68134403F5A0631B687E
:1033E00003F00043B3F1004FECD000E000BFFB7DE1
:1033F0000133FB75FB7D0F2BC7D97B6803F5806319
:103400001A464FF0FF3353617B684FF0FF325A6129
:103410007868FFF736FB002318461837BD4680BD95
:1034200070470268D36843F00103D36002681368F1
:1034300043F00103136000207047704770477047E6
:10344000704710B5044603681A6912F0020F11D0D4
:10345000DA6812F0020F0DD06FF002021A61012338
:10346000037603689B6913F0030F70D0FFF7E6FF44
:103470000023237623681A6912F0040F12D0DA6849
:1034800012F0040F0ED06FF004021A6102232376AB
:1034900023689B6913F4407F5FD02046FFF7CEFF7F
:1034A0000023237623681A6912F0080F12D0DA6815
:1034B00012F0080F0ED06FF008021A610423237671
:1034C0002368DB6913F0030F4ED02046FFF7B6FFE9
:1034D0000023237623681A6912F0100F12D0DA68DD
:1034E00012F0100F0ED06FF010021A61082323762D
:1034F0002368DB6913F4407F3DD02046FFF79EFF31
:103500000023237623681A6912F0010F03D0DA68CA
:1035100012F0010F36D123681A6912F0800F03D020
:10352000DA6812F0800F34D123681A6912F0400F64
:1035300003D0DA6812F0400F32D123681A6912F012
:10354000200F03D0DA6812F0200F30D110BDFFF742
:1035500074FF2046FFF773FF8AE72046FFF76DFFF1
:103560002046FFF76CFF9BE72046FFF766FF2046EB
:10357000FFF765FFACE72046FFF75FFF2046FFF748
:103580005EFFBDE76FF001021A61204612F02CF9D0
:10359000C1E76FF080021A61204600F089F8C3E7A6
:1035A0006FF040021A612046FFF74AFFC5E76FF04F
:1035B00020021A61204600F07AF8C7E703682E4A15
:1035C000904212D0B0F1804F0FD0A2F57C429042D1
:1035D0000BD002F58062904207D002F580629042E3
:1035E00003D002F57842904203D123F070034A6879
:1035F0001343214A90422AD0B0F1804F27D0A2F540
:103600007C42904223D002F5806290421FD002F5A6
:10361000806290421BD002F57842904217D002F5AA
:103620007052904213D002F5806290420FD002F5A2
:10363000806290420BD0A2F59832904207D002F5FA
:103640008062904203D002F58062904203D123F45D
:103650004073CA68134303608B68C3620B6883625C
:10366000054B984203D003F58063984201D10B6962
:10367000036301234361704700000140A8B110B506
:10368000044690F839305BB1022384F83930211DAB
:103690002068FFF793FF012384F83930002010BD24
:1036A00080F83830FFF7BCFEEEE701207047704726
:1036B000704700002DE9F843044601680A6922F4C6
:1036C0004052C36813430B610168CA6822F4164272
:1036D00022F00C0283680069034360690343E069D8
:1036E00003431343CB6021684A6922F44072A36903
:1036F00013434B61E369B3F5004F60D02368B84AC8
:10370000934200F0148102F58062934200F00F8131
:1037100000F096FD00EB800000EB80006568AD00D6
:10372000B0FBF5F5AF4FA7FB05356D092E0100F095
:1037300087FD00EB800000EB80006568AD00B0FB0A
:10374000F5F900F07DFD00EB800000EB800065687E
:10375000AD00B0FBF5F5A7FB05356D094FF064082A
:1037600008FB15952D013235A7FB05356D0905F0D0
:10377000F005354400F064FD00EB800000EB8000B4
:103780006668B600B0FBF6F600F05AFD00EB80006C
:1037900000EB800063689B00B0FBF3F0A7FB0030F8
:1037A000400908FB10684FEA081808F13208A7FB27
:1037B0000837C7F3431723682F449F600DE1236840
:1037C000874A93425BD002F58062934257D000F063
:1037D00037FD00EB800000EB800065686D00B0FBFA
:1037E000F5F5804FA7FB05356D092E0100F028FD8A
:1037F00000EB800000EB800065686D00B0FBF5F920
:1038000000F01EFD00EB800000EB800065686D009D
:10381000B0FBF5F5A7FB05356D094FF0640808FB13
:103820001595ED003235A7FB05356D096D0005F4E2
:10383000F875354400F004FD00EB800000EB8000DB
:1038400066687600B0FBF6F600F0FAFC00EB80004C
:1038500000EB800063685B00B0FBF3F3A7FB03237E
:103860005B0908FB13684FEAC80808F13208A7FB98
:103870000837C7F3421723682F449F60ADE000F07C
:10388000EFFC00EB800000EB800065686D00B0FB92
:10389000F5F5544FA7FB05356D092E0100F0E0FC4E
:1038A00000EB800000EB800065686D00B0FBF5F96F
:1038B00000F0D6FC00EB800000EB800065686D0036
:1038C000B0FBF5F5A7FB05356D094FF0640808FB63
:1038D0001595ED003235A7FB05356D096D0005F432
:1038E000F875354400F0BCFC00EB800000EB800074
:1038F00066687600B0FBF6F600F0B2FC00EB8000E4
:1039000000EB800063685B00B0FBF3F3A7FB0323CD
:103910005B0908FB13684FEAC80808F13208A7FBE7
:103920000837C7F3421723682F449F6055E000F023
:1039300097FC00EB800000EB80006568AD00B0FBF9
:10394000F5F5284FA7FB05356D092E0100F088FC21
:1039500000EB800000EB80006568AD00B0FBF5F97E
:1039600000F07EFC00EB800000EB80006568AD009D
:10397000B0FBF5F5A7FB05356D094FF0640808FBB2
:1039800015952D013235A7FB05356D0905F0F005BC
:10399000354400F065FC00EB800000EB80006668B9
:1039A000B600B0FBF6F600F05BFC00EB800000EB2D
:1039B000800063689B00B0FBF3F0A7FB0030400978
:1039C00008FB10684FEA081808F13208A7FB08370F
:1039D000C7F3431723682F449F60BDE8F88300BFF7
:1039E000001001401F85EB512DE9F04105460F46BF
:1039F00016469846069C2B681B6837EA03030CBFE3
:103A000001230023B3421DD1B4F1FF3FF3D02CB109
:103A100000F0F0FDA0EB0800A042ECD92A68D368C2
:103A200023F4D073D3602A68536923F001035361F0
:103A3000202385F8393085F83A30002385F838306E
:103A4000032000E00020BDE8F08158B310B5044623
:103A500090F839300BB3242384F839302268D368C6
:103A600023F40053D3602046FFF724FE2268136935
:103A700023F4904313612268536923F02A035361AE
:103A80002268D36843F40053D3600020E06320230E
:103A900084F8393084F83A3010BD80F8383012F0AC
:103AA00007FAD8E7012070472DE9F04182B01E46A1
:103AB00090F83930DBB2202B55D104460D469046A4
:103AC000002955D0002A55D090F83830012B53D01A
:103AD000012380F838300023C363212380F8393074
:103AE00000F088FD0746A4F82480A4F8268010E0A2
:103AF00000963B46002280212046FFF775FF0028F4
:103B00003CD12B882268C3F3080353602369C3B9EF
:103B10000235E38C9BB2B3B1E38C013B9BB2E384EF
:103B2000A368B3F5805FE3D000963B460022802176
:103B30002046FFF759FF18BB2A7823685A600135E1
:103B4000E7E70135E5E700963B46002240212046A5
:103B5000FFF74AFF0346A8B9202284F83920002243
:103B600084F8382000E00223184602B0BDE8F08156
:103B70000123F9E70123F7E70223F5E70323F3E73E
:103B80000323F1E70323EFE72DE9F04182B01E465E
:103B900090F83A30DBB2202B5AD104460D469046BD
:103BA000002959D0002A59D090F83830012B57D02D
:103BB000012380F838300023C363222380F83A3091
:103BC00000F018FD0746A4F82C80A4F82E801DE014
:103BD00000963B46002220212046FFF705FF0028E3
:103BE00040D1236933B923685B68C3F3080325F820
:103BF000023B0BE023685B68DBB225F8013B05E084
:103C000023685B6803F07F032B700135E38D9BB263
:103C1000BBB1E38D013B9BB2E385A368B3F5805F45
:103C2000D6D000963B46002220212046FFF7DCFE3E
:103C3000D0B92369002BE3D123685B682B70013571
:103C4000E4E7202384F83A30002084F8380000E0CC
:103C5000022002B0BDE8F0810120FAE70120F8E778
:103C60000220F6E70320F4E70320F2E7002800F043
:103C7000BB8170B582B00446036813F0010F3BD0DE
:103C8000A74B9B6803F00C03042B2CD0A44B9B6820
:103C900003F00C03082B21D06368B3F5803F4FD0AD
:103CA000B3F5A02F52D09E4B1A6822F480321A60CE
:103CB0001A6822F480221A606368002B50D000F04A
:103CC00099FC0546964B1B6813F4003F14D100F095
:103CD00091FC401B6428F5D903208AE1904B5B6876
:103CE00013F4800FD8D08E4B1B6813F4003F03D021
:103CF0006368002B00F07A81236813F0020F55D01F
:103D0000874B9B6813F00C0F3ED0854B9B6803F0EC
:103D10000C03082B33D0E368002B68D0814B0122C1
:103D20001A6000F067FC05467D4B1B6813F0020F1C
:103D300054D100F05FFC401B0228F5D9032058E164
:103D4000774A136843F480331360B5E7744B1A68FD
:103D500042F480221A601A6842F480321A60ABE79B
:103D600000F048FC05466E4B1B6813F4003FC3D0BF
:103D700000F040FC401B6428F5D9032039E1684B72
:103D80005B6813F4800FC6D1654B1B6813F0020FFC
:103D900004D0E368012B01D001202AE1604A1368B6
:103DA00023F0F803216943EAC1031360236813F089
:103DB000080F40D0636963B35B4B01221A6000F0C7
:103DC00019FC0546564B5B6F13F0020F33D100F020
:103DD00011FC401B0228F5D903200AE1504A136860
:103DE00023F0F803216943EAC1031360DEE74D4B7A
:103DF00000221A6000F0FEFB0546494B1B6813F0D9
:103E0000020FD3D000F0F6FB401B0228F5D90320A7
:103E1000EFE0454B00221A6000F0ECFB0546404BFA
:103E20005B6F13F0020F06D000F0E4FB401B02288A
:103E3000F5D90320DDE0236813F0040F79D0384B67
:103E40001B6C13F0805F33D100230193344B1A6C49
:103E500042F080521A641B6C03F080530193019B63
:103E60000125324B1B6813F4807F23D0A368012BFC
:103E700034D0052B38D02A4B1A6F22F001021A6772
:103E80001A6F22F004021A67A368002B36D000F0E4
:103E9000B1FB0646224B1B6F13F0020F48D100F016
:103EA000A9FB801B41F288339842F3D90320A0E09C
:103EB0000025D6E71D4A136843F48073136000F0B1
:103EC00099FB0646194B1B6813F4807FCED100F096
:103ED00091FB801B0228F5D903208AE0104A136F5A
:103EE00043F001031367CFE70D4B1A6F42F0040252
:103EF0001A671A6F42F001021A67C5E700F07AFBF1
:103F00000646074B1B6F13F0020F11D000F072FB37
:103F1000801B41F288339842F3D9032069E000BF47
:103F20000038024000004742800E474200700040C7
:103F3000E5B9A369002B5BD0304A926802F00C020D
:103F4000082A58D0022B17D02D4B00221A6000F0FF
:103F500051FB0446294B1B6813F0007F42D000F050
:103F600049FB001B0228F5D9032042E0234A136CC9
:103F700023F080531364DCE7214B00221A6000F029
:103F800039FB05461D4B1B6813F0007F06D000F07F
:103F900031FB401B0228F5D903202AE0E369226A9D
:103FA0001343626A43EA8213A26A5208013A43EA5F
:103FB0000243E26A43EA0263104A5360104B012253
:103FC0001A6000F017FB04460C4B1B6813F0007FCF
:103FD00006D100F00FFB001B0228F5D9032008E0F2
:103FE000002006E0002004E001207047012000E0EE
:103FF000002002B070BD0120FBE700BF0038024086
:1040000060004742324B9B6803F00C03042B5CD0EA
:10401000082B01D02F4870472DE9F04B2C4B5A68E4
:1040200002F03F025B6813F4800F2BD0284B5B68D3
:10403000C3F388131E4600275C010025E41A65EBD4
:104040000705A90141EA9461A001001B61EB05018C
:10405000CB0043EA5073C400A01943EB07014B02A5
:1040600043EAD0534402204619460023FCF70EFED3
:10407000174B5B68C3F3014301335B00B0FBF3F004
:10408000BDE8F08B124B5B68C3F388131E46002714
:104090005C010025E41A65EB0705A90141EA94617A
:1040A000A001001B61EB0501CB0043EA5073C40083
:1040B000A01943EB07018B0243EA90538402204688
:1040C00019460023FCF7E2FDD2E70348704700BF22
:1040D000003802400024F40000127A00002800F0AA
:1040E0009D8070B504464F4B1B6803F00F038B4255
:1040F00009D2CBB24B4A1370136803F00F038B4203
:1041000001D0012070BD236813F0020F17D013F007
:10411000040F04D0444A936843F4E0539360236847
:1041200013F0080F04D0404A936843F4604393604F
:104130003D4A936823F0F003A068034393600D4663
:10414000236813F0010F32D06368012B21D09A1E2F
:10415000012A25D9344A126812F0020F60D0324980
:104160008A6822F0030213438B6000F043FA06468C
:104170002D4B9B6803F00C036268B3EB820F16D0E3
:1041800000F038FA801B41F288339842F0D90320BE
:10419000B8E7254A126812F4003FE0D10120B1E7E8
:1041A000214A126812F0007FD9D10120AAE71D4BE5
:1041B0001B6803F00F03AB4209D9EAB2194B1A701E
:1041C0001B6803F00F03AB4201D001209AE723687C
:1041D00013F0040F06D0144A936823F4E053E16807
:1041E0000B439360236813F0080F07D00E4A9368BF
:1041F00023F46043216943EAC1039360FFF702FFA0
:10420000094B9B68C3F30313084AD35CD840084B9F
:104210001860002011F0E8F8002073E701207047D3
:1042200001206FE7003C024000380240D00A02083B
:1042300004000020014B1868704700BF04000020F4
:1042400008B5FFF7F7FF044B9B68C3F38223034ACB
:10425000D35CD84008BD00BF00380240E00A020825
:1042600008B5FFF7E7FF044B9B68C3F34233034AEB
:10427000D35CD84008BD00BF00380240E00A020805
:104280000F2303600B4B9A6802F0030242609A68A6
:1042900002F0F00282609A6802F4E052C2609B6809
:1042A000DB0803F4E0530361034B1B6803F00F03C7
:1042B0000B60704700380240003C024000230F2B87
:1042C00000F2E380F0B482B039E0092200E000227D
:1042D000B2403A4302346D4E46F824206C4A1468CA
:1042E000EA4302EA04064F6817F4803F01D045EA2A
:1042F0000406674C2660646802EA04064F6817F4F7
:10430000003F01D045EA0406614C6660A46802EAF9
:1043100004064F6817F4801F01D045EA04065C4C80
:10432000A660E46822404E6816F4001F01D045EAFA
:104330000402574CE26001330F2B00F2A3800122EC
:104340009A400C6804EA0205AA42F4D14C68022C97
:1043500001D0122C10D1DE08083650F826C003F028
:104360000704A7000F24BC402CEA040C0C69BC40D5
:1043700044EA0C0440F8264004685F000326BE406F
:10438000F64306EA040C4C6804F00304BC4044EA1B
:104390000C0404604C6804F1FF3CBCF1010F03D92C
:1043A000112C01D0122C10D1846806EA040CCC68C0
:1043B000BC4044EA0C048460446824EA02024C686D
:1043C000C4F300149C4014434460C26816408A68D9
:1043D000BA403243C2604A6812F0805FABD000221C
:1043E00001922C4A546C44F480445464526C02F49C
:1043F00080420192019A9C08A61C244A52F8267019
:1044000003F0030296000F22B24027EA0207224A75
:1044100090423FF45CAF02F58062904222D002F5F8
:104420008062904220D002F5806290421ED002F558
:10443000806290421CD002F5806290421AD002F550
:104440008062904218D002F58062904216D002F548
:104450008062904214D002F5806290423FF435AF02
:104460000A2235E7012233E7022231E703222FE750
:1044700004222DE705222BE7062229E7072227E75A
:10448000082225E702B0F0BC7047704700380140B1
:10449000003C01400038024000000240036919421C
:1044A00001D1002070470120704712B909048161D1
:1044B0007047816170470000074AD36823F4E063C6
:1044C0001B041B0C000200F4E060184340F0BF60C6
:1044D00040F40030D060704700ED00E030B4174B7E
:1044E000DB68C3F30223C3F10704042C28BF0424B0
:1044F0001D1D062D18D9033B4FF0FF3505FA04F4B6
:1045000021EA0401994005FA03F322EA030319435F
:1045100000280BDB0901C9B200F1604000F56140E1
:1045200080F8001330BC70470023E5E700F00F006F
:104530000901C9B2024B1954F4E700BF00ED00E0D5
:1045400014ED00E000F01F02400901239340024AED
:1045500042F82030704700BF00E100E00138B0F1C0
:10456000807F0AD2064B5860064AF02182F8231059
:104570000020986007221A6070470120704700BF32
:1045800010E000E000ED00E0042805D0054A1368C3
:1045900023F0040313607047024A136843F00403D6
:1045A0001360704710E000E008B50B4B1A6842F446
:1045B00000721A601A6842F480621A601A6842F443
:1045C00080721A600320FFF777FF002010F00CFFC5
:1045D00011F024FC002008BD003C0240034A116891
:1045E000034B1B780B441360704700BF0CA80120DD
:1045F00000000020014B1868704700BF0CA8012084
:1046000038B50446FFF7F6FF0546B4F1FF3F02D088
:10461000044B1B781C44FFF7EDFF401BA042FAD36C
:1046200038BD00BF000000200F49D1F8883043F4A6
:104630007003C1F888300D4B1A6842F001021A600D
:10464000002098601A6822F0847222F480321A6086
:10465000074A5A601A6822F480221A60D8604FF024
:1046600000638B60704700BF00ED00E0003802403F
:104670001030002410B582B00C4602A8002340F888
:10468000043D012103F05CFA2060003018BF0120D6
:1046900002B010BD08B503F0CFFA012008BD08B57F
:1046A0004FF47A7103F060FA08B9012008BD0020C8
:1046B000FCE708B503F092FA08BD000008B5044B0A
:1046C00003EB8002526852680344187A904708BD91
:1046D0008403002008B5084B1B5C53B9064B01222C
:1046E0001A5403EB8002526812681844007A90470B
:1046F00008BD0020FCE700BF8403002038B5044C4F
:1047000004EB80056D68AD680444207AA84738BD85
:104710008403002038B5044C04EB80056D68ED6817
:104720000444207AA84738BD8403002010B5044B08
:1047300003EB8004646824690344187AA04710BD21
:10474000840300204278007840EA02207047C27853
:10475000837843EA0222437843EA0223007840EA5E
:10476000032070470170090A417070470170C1F35E
:1047700007234370C1F307438370090EC17070476C
:1047800013462AB10A78027001300131013BF9D198
:10479000704701700130013AFBD1704730B4451CBD
:1047A000037808781B1A013A04D04C1C284621468D
:1047B000002BF4D0184630BC704700E0013003787D
:1047C0000BB18B42FAD118467047000030B4002577
:1047D0002B4601E001250133012B15D81A01174C96
:1047E000A258002AF6D00468A242F4D1134A02EB80
:1047F0000312546882689442EDD1104A02EB03120E
:10480000946842699442E6D1022B0AD0A1B90B4ABE
:1048100002EB03139B89B3F5807F07D0002030BCE7
:1048200070472DB9022905D10020F8E71020F6E7DE
:104830000020F4E71220F2E71020F0E760030020E8
:10484000002000E00130012804D80301034AD358B6
:10485000002BF7D1023818BF0120704760030020F9
:1048600070B4002300E00133012B13D81A01244C4B
:10487000A45802689442F6D1214A02EB031254680C
:1048800082689442EFD11E4A02EB03129468426997
:104890009442E8D1022B29D021B1194A02EB03122C
:1048A000928952BB21BB164A02EB03129189013156
:1048B00089B2134A02EB03129181581C70BC7047F5
:1048C0000133012B04D81A010D4CA258002AF7D14C
:1048D000022B10D006680A4D1C012A192E5184683B
:1048E00054604069906000209081D5E70023E8E79C
:1048F0004FF48071DDE70020E0E70020DEE700BF35
:10490000600300200138012815D80D4B03EB00137C
:104910009B89B3F5807F03D01BB1013B9BB200E0C4
:104920000023074A02EB0012938133B903010020F0
:10493000034AD0507047022070470020704700BFE4
:1049400060030020002303E05DF8044B704701334F
:10495000012B11D81A0109498A588242F7D110B4A3
:104960001A0100248C500133012BEDD81A010349A0
:104970008A588242F7D1F3E7704700BF60030020F6
:1049800002398369023B8B4204D94389C06A01FB27
:1049900003007047002070470268C36A0433490A65
:1049A0005289B1FBF2F1186830B1814202D3091A81
:1049B0000833F8E758680844704770B506460D4656
:1049C00001F11A00FFF7BEFE3378032B00D070BD53
:1049D000044605F11400FFF7B5FE44EA0040F6E78F
:1049E00070B506460C46154691B204F11A00FFF761
:1049F000B9FE3378032B00D070BD290C04F11400EC
:104A0000FFF7B0FEF8E700234B72C36973B370B5CC
:104A10000022134605E0092C0ED08D186B7201326E
:104A200023460A2B0DD8056A5C1CEB5C202BF7D0C3
:104A3000052BF0D1E523EEE78D182E266E7201329C
:104A4000EBE70D4604460A4400235372036ADB7AFF
:104A50000B72006A1C30FFF77AFE2860206A16305D
:104A6000FFF775FEE880000CA88070BD704700005D
:104A70002DE9F84F82468B460F6800F124090B227E
:104A800020214846FFF785FE002633464FF00808F0
:104A90002CE001357B5D2F2BFBD05C2BF9D03D4406
:104AA000CBF80050002E43D09AF82430E52B35D0B7
:104AB000202C37D804238AF82F30002028E008263D
:104AC0004FF00B0811E014F0800F23D12146194854
:104AD000FFF773FE50BBA4F16103DBB2192B01D8C1
:104AE000203CE4B209F8064001362B465D1CFC5C14
:104AF000202CD4D92F2CCDD05C2CCBD02E2C01D077
:104B0000B045E0D8B8F10B0F0ED02E2CD7D0062030
:104B1000BDE8F88F803C084B1C5DD7E705238AF879
:104B20002430C5E70023C6E70620F1E70620EFE7BB
:104B30000620EDE7680B0208E80A0208016809B1DF
:104B40000A4603E04FF0FF3308E001321378202BD0
:104B500001D93A2BF9D13A2B02D0002318467047DD
:104B600010B44C1C0B78303B092B08D8A24209D159
:104B70005BB90132026018465DF8044B70474FF094
:104B8000FF33F8E74FF0FF33F5E74FF0FF33F2E77D
:104B900008B530B1C068FFF782FD034610B10123AC
:104BA00000E00023184608BD38B50D4640B1044664
:104BB00003682BB11A781AB1D9888288914203D040
:104BC00000232B60092038BD5878FFF777FD10F0DF
:104BD000010FF5D123682B602068FFF7D9FF08B1DA
:104BE0000020F0E70F20EEE7F8B5C3780BB90020FE
:104BF000F8BD0446056B00F1340701232A46394607
:104C00004078FFF787FDA8B90023E370636AEB1AC9
:104C1000E269934210D2A678012E09D9E3691D44B6
:104C200001232A4639466078FFF774FD013EF3E719
:104C30000020DDE70120DBE70020D9E770B5036B3A
:104C40008B4212D004460D46FFF7CEFF064668B9E8
:104C500001232A4604F134016078FFF74FFD10B1BB
:104C600001264FF0FF35256300E00026304670BD79
:104C700010B504460023C3704FF0FF330363FFF702
:104C8000DDFF18BB04F23220FFF75CFD4AF6552326
:104C900098421DD194F83430E92B05D0636B03F0B2
:104CA000FF130F4A934215D104F16A00FFF74FFD3D
:104CB00020F07F400B4B98420ED004F18600FFF7A6
:104CC00046FD094B984209D1002002E0042000E093
:104CD000032010BD0220FCE70020FAE70220F8E7DD
:104CE000EB00900046415400464154332DE9F04713
:104CF00084B00E46174600230B60FFF71FFF051E0A
:104D0000C0F24A81BA4B53F82540002C00F046818E
:104D10002046FFF73DFF002800F04481346007F093
:104D2000FE07237873B16078FFF7C8FC10F0010F1D
:104D300008D1002F00F0388110F0040F40F03681C8
:104D400000202CE100232370E8B26070FFF7C2FC62
:104D500010F0010F40F02C811FB110F0040F40F053
:104D6000298100212046FFF783FF022800F0B6804A
:104D70000026042800F02081012800F21F8104F1A0
:104D80003F00FFF7DFFCB0F5007F40F0198104F130
:104D90004A00FFF7D7FC074620B904F15800FFF797
:104DA000D6FC0746E76194F84420A270531EDBB29C
:104DB000012B00F2078107FB02F594F84180A4F86B
:104DC0000A80B8F1000F00F0FF8008F1FF3318EA05
:104DD000030F40F0FB8004F14500FFF7B3FC82466F
:104DE000208110F00F0F40F0F38004F14700FFF72F
:104DF000A9FC814620B904F15400FFF7A8FC8146C4
:104E000004F14200FFF79EFC0146002800F0E2801A
:104E1000421902EB1A129145C0F0DE80A9EB0203A1
:104E2000B3FBF8F3002B00F0D9804FF6F570834206
:104E30006CD94FF0030940F6F570834201D84FF06A
:104E4000010903F10208C4F8188026628B19636215
:104E50003244E262B9F1030F5BD0BAF1000F00F007
:104E6000C3802B44A362B9F1020F63D008EB480260
:104E700008F0010303EB520303F2FF13B7EB532FC8
:104E8000C0F0B4804FF0FF3363612361802323714E
:104E9000B9F1030F51D084F80090564A13880133BA
:104EA0009BB21380E3802046FFF74CFD002076E0A4
:104EB000002004AB03EB850343F8100C0135032DF0
:104EC0000ED804F134002B0103F5DF731844037985
:104ED000002BEDD00830FFF73AFCEAE70025EEE7BB
:104EE00000250AE031462046FFF7C2FE01287FF682
:104EF00040AF0135032D3FF63CAF04AB03EB850318
:104F000053F8106C002EEDD10320F2E74FF00209A8
:104F100091E704F15E00FFF715FC002860D1BAF1BB
:104F2000000F5FD104F16000FFF711FCA0624FEAAF
:104F30008803A1E74FEA48039EE704F16400FFF706
:104F400001FC0128A7D1711C2046FFF777FE00283D
:104F5000A1D10023237104F23220FFF7F3FB4AF6BC
:104F60005523984297D104F13400FFF7F0FB224B10
:104F7000984290D104F50670FFF7E9FB1F4B984269
:104F800089D104F50770FFF7E2FB606104F5087052
:104F9000FFF7DDFB20617EE70B2000E00C2004B072
:104FA000BDE8F0870F20FAE70020F8E70A20F6E7CF
:104FB0000320F4E70A20F2E70120F0E70D20EEE7F6
:104FC0000D20ECE70D20EAE70D20E8E70D20E6E7ED
:104FD0000D20E4E70D20E2E70D20E0E70D20DEE7FD
:104FE0000D20DCE70D20DAE70D20D8E70D20D6E70D
:104FF0005C030020800300205252614172724161C3
:105000002DE9F04701297AD983698B4279D917466E
:105010000C4606460378022B43D0032B54D0012BB9
:1050200001D002256EE001EB5108416A01EB5821E5
:10503000FFF704FE0546002864D106F1340A08F1A2
:105040000109C8F3080814F001041FD01AF9083048
:1050500003F00F033A0102F47F621343DBB20AF854
:1050600008300123F370716A01EB59213046FFF7D4
:10507000E5FD0546002845D1C9F3080944B1C7F349
:1050800007120AF809200123F3703BE0FBB2E6E7C0
:105090001AF9092022F00F02C7F303273A43D2B2CC
:1050A000EFE7416A01EB1421FFF7C8FD054648BB55
:1050B00006F13400640004F4FF74B9B22044FFF731
:1050C00051FB0123F3701DE0416A01EBD411FFF79E
:1050D000B5FD0546B0B927F0704706F13403A100CD
:1050E00001F4FE715C182046FFF731FB00F07041BF
:1050F00039432046FFF73AFB0123F37002E0022513
:1051000000E002252846BDE8F087F8B506680129C9
:1051100053D9B3698B4252D90C463378022B2BD02A
:10512000032B39D0012B01D0012047E001EB5105C1
:10513000716A01EB55213046FFF780FD002840D110
:105140006F1CC5F30805354495F83450716A01EBBE
:1051500057213046FFF772FDB0BBC7F30803334455
:1051600093F8340045EA002014F0010F01D0000943
:1051700024E0C0F30B0021E0716A01EB14213046FA
:10518000FFF75CFD18BB06F13400610001F4FF710C
:105190000844FFF7D7FA11E0716A01EBD4113046E9
:1051A000FFF74CFDB0B93436A10001F4FE70304475
:1051B000FFF7CDFA20F0704000E00120F8BD01209B
:1051C000FCE74FF0FF30F9E74FF0FF30F6E74FF024
:1051D000FF30F3E74FF0FF30F0E72DE9F0410768CB
:1051E000B1F5001F3BD206460D4611F01F0F39D115
:1051F000716184681CB93B78022B00D9BC6A94B9F0
:105200003B89B3EB551F2FD9BB6AF361B461F369D6
:1052100093B303EB5523F3613437C5F308053D44DD
:10522000356200201CE0B7F80A804FEA482845455F
:105230000FD321463046FFF768FF0446B0F1FF3F29
:1052400014D0012814D9BB69834213D9A5EB0805F2
:10525000EDE721463846FFF793FBF061D6E70220E1
:10526000BDE8F0810220FBE70220F9E70120F7E723
:105270000220F5E70220F3E70220F1E72DE9F041F3
:1052800007460668884631B935698DB1B369AB42C6
:105290000FD801250DE0FFF738FF0346012847D955
:1052A000B0F1FF3F49D0B269824246D8454600E09E
:1052B00001252C460CE021463846FFF726FF034621
:1052C00070B1012839D0B0F1FF3F36D0AC4233D0B5
:1052D0000134B369A342EED8012D2BD90224EAE7A9
:1052E0004FF0FF3221463046FFF78AFE034610B9E1
:1052F000B8F1000F0ED1A3B934617269B369023BF2
:105300009A4201D8013A7261337943F00103337153
:10531000234612E0224641463046FFF771FE03461F
:10532000E9E7012B01D0012307E04FF0FF3304E050
:10533000012302E0002300E000231846BDE8F081CD
:10534000F8B50E46056801292ED907461146AB6906
:10535000B3422CD952B14FF0FF322846FFF750FE2E
:10536000844618B125E02646A24222D93146384665
:10537000FFF7CBFE0446F0B101281FD0B0F1FF3F8C
:105380001FD0002231462846FFF73AFE844680B9F6
:105390006B69AA69911E8B42E5D201336B612B794F
:1053A00043F001032B71DEE74FF0020C01E04FF0F8
:1053B000020C6046F8BD4FF0000CFAE74FF0020C0B
:1053C000F7E74FF0010CF4E72DE9F843066845696B
:1053D000C369002B6ED02035B5F5001F6CD288460E
:1053E0000446C5F308073FB90133C361816979B940
:1053F0003389B3EB551F07D9656106F134033B448C
:1054000023620020BDE8F8830023C3610420F9E78C
:105410007389013B13EA5523EED1FFF776FE8146EF
:1054200001284BD9B0F1FF3F4AD0B369834239D844
:10543000B8F1000F11D0A1692046FFF71FFF814688
:1054400000283FD001283FD0B0F1FF3F3ED030468A
:10545000FFF7CAFB28B10120D4E70023E361042051
:10546000D0E74FF40072002106F13400FFF791F904
:1054700049463046FFF784FA30634FF000087389DD
:1054800098450BD20123F3703046FFF7ADFBF8B916
:1054900008F10108336B01333363F0E7336BA3EB9F
:1054A00008033363C4F8189049463046FFF768FA9A
:1054B000E061A1E70420A5E70420A3E70220A1E71B
:1054C00001209FE707209DE702209BE7012099E745
:1054D000012097E770B5044606680021FFF77DFEBE
:1054E000054640B1284670BD00212046FFF76CFFFD
:1054F00005460028F6D1E1693046FFF79FFB0546D7
:105500000028EFD1206A03787BB1C37A03F03F0310
:10551000A371C37A13F0080FE6D10B2204F1240122
:10552000FFF73CF90028DFD1DCE70425DAE730B5E6
:1055300083B004460191056801E001330193019BAA
:105540001A782F2AF9D05C2AF7D00022A2601B78A3
:105550001F2B1ED901A92046FFF78AFA034600BB7C
:105560002046FFF7B7FF94F82F200346E0B912F06A
:10557000040F16D1A37913F0100F1CD005F13401DC
:105580006369C3F3080319442846FFF716FAA060BD
:10559000E0E7802384F82F3011462046FFF71DFEF8
:1055A0000346184603B030BD0428FAD112F0040FA8
:1055B000F7D10523F5E70523F3E7F8B504460F46D1
:1055C00006680021FFF709FE0346C0B9002508E080
:1055D0000135BD4213D001212046FFF7F5FE0346F9
:1055E00068B9E1693046FFF729FB034638B9226AFA
:1055F0001278E52AECD0002AEAD00025EBE7042B4C
:1056000001D01846F8BD0723FBE770B504460668CD
:105610000121FFF7D2FF054608B1284670BDE169B8
:105620003046FFF70BFB05460028F6D1202200216B
:10563000206AFFF7AEF80B2204F12401206AFFF77D
:105640009FF80123F370E8E7F8B504460E460568B5
:10565000042705E000212046FFF7B6FE0746E8B91B
:10566000E169D9B12846FFF7E9FA0746B0B9236ADC
:105670001A7892B1DB7A03F03F03A371E52AE9D0EF
:105680002E2AE7D00F2BE5D023F02003082B14BFE0
:1056900000230123B342DDD100E004270FB1002332
:1056A000E3613846F8BD50B108B50C2906D00B2986
:1056B00004D00F2902D0C068FEF7FBFF08BD704779
:1056C00070B50446FFF790FA054648B92378032BD6
:1056D00008D0002211466078FFF728F800B10125B4
:1056E000284670BD2379012BF3D104F134064FF421
:1056F000007200213046FFF74CF84AF6552104F2BB
:105700003220FFF72FF80F493046FFF72FF80E49E8
:1057100004F50670FFF72AF8616904F50770FFF7D2
:1057200025F8216904F50870FFF720F8226A013294
:105730002263012331466078FEF7ECFF00232371DA
:10574000C7E700BF525261417272416170B584B0C7
:1057500001900091164604A840F8041DFFF7EEF9E9
:10576000051E2CDB1A4B53F8254044B12046FFF7A9
:10577000E9F8E068FEF78EFF18B300232370019B61
:105780003BB100221A7001990C31E8B2FEF772FFAA
:10579000C8B1019B0E4A42F82530B3B1012E03D0A7
:1057A0000024204604B070BD002201A96846FFF71E
:1057B0009DFA044601460198FFF775FFF1E70B24B7
:1057C000EFE70224EDE70224EBE70024E9E700BF5E
:1057D0005C0300202DE9F04391B00191002800F016
:1057E0000F810546164602F03F073A4603A901A875
:1057F000FFF77CFA044650B10CB100232B60214620
:105800000398FFF750FF204611B0BDE8F083039BDB
:105810000493019904A8FFF78AFE044660B99DF934
:105820003F30002B51DB37F0010314BF0121002171
:1058300004A8FEF7CBFF044616F01C0F5BD0002C2B
:105840004FD0042C43D047F00807002C62D117F04A
:10585000080F5FD0FBF7B0FC064601460C980E30EF
:10586000FEF784FF31460C981630FEF77FFF0C9B45
:105870002022DA72039EDDF8308041463046FFF781
:105880009CF88146002241463046FFF7A9F80021E6
:105890000C981C30FEF76AFF039B0122DA70B9F105
:1058A000000F37D0039B1E6B0022494604A8FFF768
:1058B00047FD044670BB31460398FFF7BFF9044625
:1058C00009F1FF33039A136124E00624B4E7FEF7DD
:1058D000B7FF08B91224B6E704A8FFF796FE0446FE
:1058E000B1E79DF8163013F0110F12D116F0040F26
:1058F000ABD008240EE06CB99DF8163013F0100FF1
:105900004CD116F0020F05D013F0010F02D007247E
:1059100016E00724A4B917F0080F01D047F040079C
:10592000039B1B6B6B620C9BAB6237F0010314BFD4
:105930000121002104A8FEF793FF286100285DD013
:10594000002C7FF459AF039EDDF83080414630468D
:10595000FFF733F8A86008F11C00FEF7F8FEE860D6
:105960000021E9622E60F388AB802F75697529628A
:10597000A96105F130084FF400724046FEF709FFB7
:1059800017F0200F3FF438AFEE68002E3FF434AF2D
:10599000AE61039B5F897F02A96805E00424CFE71D
:1059A000B1F1FF3F0BD0F61B5CB9BE4209D92846C6
:1059B000FFF7ABFB01460128F2D80224F0E70124EF
:1059C000F1E7E961002C7FF417AFC6F30803002B61
:1059D0003FF412AF039F3846FEF7D2FF08B9022406
:1059E0000BE700EB56222A62012341467878FEF746
:1059F00085FE00283FF400AF0124FEE60224FBE60A
:105A0000092400E72DE9F04F85B004460F461646FD
:105A100099460023C9F80030019003A9FFF7C4F8A4
:105A2000009070B9637D00935BB9237D13F0010F83
:105A30000FD0E568A369ED1AB542C0F08280354603
:105A40007FE000990398FFF72EFE009805B0BDE8AF
:105A5000F08F07210398FFF726FE07230093F4E752
:105A6000E36A1BB12046FEF797FF7BE0E1690198EE
:105A7000FFF74BFB76E04FF0020884F815804146B3
:105A80000398FFF710FECDF80080DEE74FF0010825
:105A900084F8158041460398FFF705FECDF8008095
:105AA000D3E74FF0020884F8158041465846FFF7C7
:105AB000FAFDCDF80080C8E74FF0010884F81580A2
:105AC00041460398FFF7EFFDCDF80080BDE7206A5F
:105AD000A0EB0A0040456DD24FF4007204F1300192
